:020000040800F2
:100000000028002005190008951800089B18000812
:10001000A1180008A7180008AD180008000000008B
:10002000000000000000000000000000B3180008FD
:10003000BF18000800000000CB180008D7180008FF
:100040004D1900084D1900084D1900084D190008F8
:100050004D1900084D1900084D1900084D190008E8
:100060004D1900084D1900084D1900084D190008D8
:100070004D1900084D1900084D1900084D190008C8
:100080004D1900084D1900084D1900084D190008B8
:100090004D1900084D1900084D1900084D190008A8
:1000A0004D1900084D1900084D1900084D19000898
:1000B000E51800084D190008000000004D1900085F
:1000C0004D19000800000000000000004D19000854
:1000D000000000004D1900084D1900080000000044
:1000E0004D1900084D1900084D19000800000000C6
:1000F0000000000000000000000000000000000000
:0C01000000000000000000005FF808F1A3
:10010C0010B5054C237833B9044B13B10448AFF345
:10011C0000800123237010BD40000020000000006F
:10012C00A42F000808B5034B1BB103490348AFF3D8
:10013C00008008BD0000000044000020A42F00082F
:10014C0080B582B000AF78607B68022B15D07B68DD
:10015C00022B18DC7B68002B03D07B68012B06D0AC
:10016C0011E002210A4801F0D7FE03460CE00421FD
:10017C00074801F0D1FE034606E00821044801F0CF
:10018C00CBFE034600E0012318460837BD4680BD70
:10019C000008014080B483B000AF7860044A7B68EB
:1001AC00012142F8231000BF0C37BD4680BC7047BC
:1001BC000400002080B483B000AF7860044A7B68F0
:1001CC00012142F8231000BF0C37BD4680BC70479C
:1001DC001000002080B582B000AF00237B6071E07E
:1001EC003C4A7B68134419783B4A7B6813440A46A3
:1001FC001A703A4A7B6813441978364A7B68134460
:10020C000A461A707868FFF79BFF03461946334A73
:10021C007B6813440A461A702F4A7B6813441A7879
:10022C002C497B680B441B789A4248D12B4A7B683B
:10023C0013441A7827497B680B441B789A423ED1A9
:10024C00274A7B6813441A7823497B680B441B7834
:10025C009A4217D0204A7B6813441978204A7B684D
:10026C0013440A461A701C4A7B6813441B78002BF3
:10027C0025D17868FFF78EFF1A4A7B68642142F813
:10028C0023101CE0174A7B6852F823305A1E15497C
:10029C007B6841F82320134A7B6852F82330002BEB
:1002AC000DDC0D4A7B6813441B78002B02D1786857
:1002BC00FFF780FF0B4A7B68642142F823107B68B0
:1002CC0001337B607B68022B8ADD00BF00BF0837DF
:1002DC00BD4680BD5C000020600000206400002052
:1002EC00000000201C00002080B483B000AF034647
:1002FC00FB71FB79022B01D900230DE0FB79094A34
:10030C0052F82330012B06D1FB79064A002142F822
:10031C002310012300E0002318460C37BD4680BC97
:10032C00704700BF0400002080B483B000AF0346C8
:10033C00FB71FB79022B01D9FF230DE0FB79094AF4
:10034C0052F82330012B06D1FB79064A002142F8E2
:10035C002310012300E0002318460C37BD4680BC57
:10036C00704700BF1000002080B500AF5E4B1B68CB
:10037C00013B032B00F2AF8001A252F823F000BF27
:10038C009D030008C303000823040008830400082D
:10039C00002000F0C3FF544B02221A60534B1B6821
:1003AC00642202FB03F3184601F04AF94F4B1B6819
:1003BC004F4A136096E0002000F0C4FA4C4B1B68C7
:1003CC001946002000F092FF00F0B4FF494B1B6867
:1003DC00012B0ED1444B03221A60474B1B6864223D
:1003EC0002FB03F3184601F02BF9434B1B68404A00
:1003FC0013600020FFF778FF0346012B6DD13A4BB9
:10040C004FF0FF321A603D4B4FF0FF321A603C4BFD
:10041C0001221A6061E0002000F0FCFA344B1B68EA
:10042C001946002000F062FF00F084FF314B1B687E
:10043C00012B0ED12C4B04221A60324B1B68642208
:10044C0002FB03F3184601F0FBF82E4B1B68284AFD
:10045C0013600020FFF748FF0346012B3FD1224BCE
:10046C004FF0FF321A60254B4FF0FF321A60244BCD
:10047C0001221A6033E0002000F098FA1C4B1B6834
:10048C001946002000F032FF00F054FF194B1B6896
:10049C00012B0ED1144B02221A60144B1B686422E0
:1004AC0002FB03F3184601F0CBF8104B1B68104A03
:1004BC0013600020FFF718FF0346012B11D10A4BE4
:1004CC004FF0FF321A600D4B4FF0FF321A600C4B9D
:1004DC0001221A6005E000BF04E000BF02E000BF8B
:1004EC0000E000BF00BF80BD680000202800002095
:1004FC00740000207C0000202C0000206C000020E8
:10050C00700000203000002080B500AF734B1B68DA
:10051C00013B182B00F2D98001A252F823F000BF46
:10052C0091050008D7060008D7060008D706000872
:10053C00D7060008D7060008D7060008D70600081B
:10054C00D7060008D7060008D7060008D70600080B
:10055C00D7060008D7060008D7060008D7060008FB
:10056C00D7060008D7060008D7060008D7060008EB
:10057C00D7060008B705000817060008D7060008BC
:10058C0077060008012000F0C9FE544B17221A60B0
:10059C00534B1B68642202FB03F3184601F064F80A
:1005AC004F4B1B684F4A136096E0012000F0CAF9CC
:1005BC004C4B1B681946012000F098FE00F0BAFE67
:1005CC00494B1B68012B0ED1444B17221A60444B2C
:1005DC001B68642202FB03F3184601F045F8404BFC
:1005EC001B68404A13600020FFF77EFE0346012B78
:1005FC006DD13E4B4FF0FF321A60384B4FF0FF324B
:10060C001A603B4B01221A6061E0012000F002FAF3
:10061C00344B1B681946012000F068FE00F08AFE7E
:10062C00314B1B68012B0ED12C4B19221A60314B0C
:10063C001B68642202FB03F3184601F015F82D4BDE
:10064C001B68284A13600020FFF74EFE0346012B5F
:10065C003FD1264B4FF0FF321A60204B4FF0FF3248
:10066C001A60234B01221A6033E0012000F09EF93E
:10067C001C4B1B681946012000F038FE00F05AFE96
:10068C00194B1B68012B0ED1144B16221A601A4BF6
:10069C001B68642202FB03F3184600F0E5FF164BBF
:1006AC001B68104A13600020FFF71EFE0346012B47
:1006BC0011D10E4B4FF0FF321A60084B4FF0FF3246
:1006CC001A600B4B01221A6005E000BF04E000BF6A
:1006DC0002E000BF00E000BF00BF80BD6C00002046
:1006EC002C000020780000208400002068000020EE
:1006FC0070000020300000202800002080B500AFE2
:10070C008A4B1B682C2B00F0B6802C2B00F3058138
:10071C002B2B62D02B2B00F30081012B02D02A2B28
:10072C000CD0FAE0002000F0F9FD012000F0F6FDFD
:10073C007E4B2A221A60322000F0BEFF00F016FE1B
:10074C000120FFF7D1FD0346012B0BD1784B1B6821
:10075C000133774A1360764B1B68632B02DD744BB5
:10076C0001221A600120FFF7DFFD0346012B0BD19C
:10077C006F4B1B68013B6E4A13606D4B1B68002B63
:10078C0002DC6B4B63221A60694B1B68184600F045
:10079C000BFA664B1B68283B184600F0B5FB002093
:1007AC00FFF7A2FD0346012B05D1604B2B221A60EB
:1007BC00322000F081FF0220FFF796FD0346012B4B
:1007CC0040F0AD805B4B01221A605B4B01221A603A
:1007DC00564B4FF0FF321A60A1E000F0EFFD574B83
:1007EC001B68184600F0E0F9504B1B68283B184674
:1007FC0000F08AFB0120FFF777FD0346012B0BD19C
:10080C004E4B1B6801334D4A13604C4B1B68632BDA
:10081C0002DD4A4B01221A600120FFF785FD0346D9
:10082C00012B0BD1454B1B68013B444A1360434BD6
:10083C001B68002B02DC414B63221A600020FFF77F
:10084C0053FD0346012B05D1384B2C221A60322064
:10085C0000F032FF0220FFF747FD0346012B60D169
:10086C00344B01221A60344B01221A602F4B4FF08B
:10087C00FF321A6055E000F08DFD314B1B681846B5
:10088C0000F092F9294B1B68283B184600F03CFB02
:10089C000120FFF729FD0346012B0BD1284B1B68C8
:1008AC000133274A1360264B1B68632B02DD244B54
:1008BC0001221A600120FFF737FD0346012B0BD1F3
:1008CC001F4B1B68013B1E4A13601D4B1B68002B02
:1008DC0002DC1B4B63221A600020FFF705FD034668
:1008EC00012B09D1134B01221A60134B01221A6000
:1008FC000E4B4FF0FF321A600220FFF7F5FC034657
:10090C00012B10D10B4B01221A600B4B01221A60E8
:10091C00064B4FF0FF321A6005E000BF04E000BF49
:10092C0002E000BF00E000BF00BF80BD70000020EF
:10093C0028000020680000206C00002030000020FF
:10094C002C00002080B582B000AF78607B68002B53
:10095C0003D07B68012B10D021E00122202112480A
:10096C0001F0F1FA012240210F4801F0ECFA0022CB
:10097C0010210D4801F0E7FA11E001224FF48071CB
:10098C00094801F0E0FA01224FF40071064801F029
:10099C00DAFA00228021044801F0D5FA00BF00BF2A
:1009AC000837BD4680BD00BF0008014080B582B04D
:1009BC0000AF78607B68002B03D07B68012B10D0D4
:1009CC0021E000222021124801F0BDFA0122402131
:1009DC000F4801F0B8FA012210210D4801F0B3FACA
:1009EC0011E000224FF48071094801F0ACFA0122A9
:1009FC004FF40071064801F0A6FA01228021044848
:100A0C0001F0A1FA00BF00BF0837BD4680BD00BF92
:100A1C000008014080B582B000AF78607B68002B85
:100A2C0003D07B68012B10D021E001222021124839
:100A3C0001F089FA002240210F4801F084FA0122CA
:100A4C0010210D4801F07FFA11E001224FF4807162
:100A5C00094801F078FA00224FF40071064801F0C1
:100A6C0072FA01228021044801F06DFA00BF00BF28
:100A7C000837BD4680BD00BF0008014080B582B07C
:100A8C0000AF78607B68002B03D07B68012B0FD004
:100A9C001FE01021114801F06EFA012220210F48AD
:100AAC0001F051FA012240210C4801F04CFA10E0FF
:100ABC0080210A4801F05FFA01224FF48071074847
:100ACC0001F041FA01224FF40071044801F03BFAA5
:100ADC0000BF00BF0837BD4680BD00BF0008014005
:100AEC0080B582B000AF78607B68002B03D07B6848
:100AFC00012B0FD01FE001221021114801F023FA25
:100B0C0040210F4801F037FA012220210C4801F056
:100B1C001AFA10E001228021094801F014FA4FF46E
:100B2C000071074801F027FA01224FF48071044844
:100B3C0001F009FA00BF00BF0837BD4680BD00BFF9
:100B4C000008014080B582B000AF78607B68002B54
:100B5C0003D07B68012B0FD01FE00122102111481C
:100B6C0001F0F1F9012240210E4801F0ECF92021AD
:100B7C000C4801F000FA10E001228021094801F034
:100B8C00E2F901224FF40071064801F0DCF94FF450
:100B9C008071044801F0EFF900BF00BF0837BD4673
:100BAC0080BD00BF0008014080B582B000AF786006
:100BBC007B68002B22D100220121CD4801F0C3F922
:100BCC0000220221CA4801F0BEF900220421C848C3
:100BDC0001F0B9F900220821C54801F0B4F900224E
:100BEC001021C34801F0AFF900222021C04801F0C8
:100BFC00AAF901224021BE4801F0A5F97B68012B1E
:100C0C0022D101220121BA4801F09DF900220221D2
:100C1C00B74801F098F900220421B54801F093F986
:100C2C0001220821B24801F08EF901221021B048AE
:100C3C0001F089F901222021AD4801F084F901224B
:100C4C004021AB4801F07FF97B68022B22D10022B6
:100C5C000121A74801F077F900220221A44801F0F4
:100C6C0072F901220421A24801F06DF90022082139
:100C7C009F4801F068F9002210219D4801F063F9AA
:100C8C00012220219A4801F05EF900224021984867
:100C9C0001F059F97B68032B22D1002201219448E1
:100CAC0001F051F900220221914801F04CF9002287
:100CBC0004218F4801F047F9002208218C4801F0EB
:100CCC0042F9012210218A4801F03DF9012220212C
:100CDC00874801F038F900224021854801F033F9AA
:100CEC007B68042B22D101220121814801F02BF9D0
:100CFC00002202217E4801F026F9002204217C48C2
:100D0C0001F021F901220821794801F01CF9012296
:100D1C001021774801F017F900222021744801F0C6
:100D2C0012F900224021724801F00DF97B68052B65
:100D3C0022D1002201216E4801F005F90122022185
:100D4C006B4801F000F900220421694801F0FBF81E
:100D5C0000220821664801F0F6F8012210216448AF
:100D6C0001F0F1F800222021614801F0ECF800229A
:100D7C0040215F4801F0E7F87B68062B22D1002266
:100D8C0001215B4801F0DFF801220221584801F0F3
:100D9C00DAF800220421564801F0D5F80022082187
:100DAC00534801F0D0F800221021514801F0CBF843
:100DBC00002220214E4801F0C6F8002240214C4868
:100DCC0001F0C1F87B68072B22D100220121484891
:100DDC0001F0B9F800220221454801F0B4F80022D4
:100DEC000421434801F0AFF801220821404801F0EA
:100DFC00AAF8012210213E4801F0A5F80122202179
:100E0C003B4801F0A0F801224021394801F09BF841
:100E1C007B68082B22D100220121354801F093F880
:100E2C0000220221324801F08EF8002204213048C1
:100E3C0001F089F8002208212D4801F084F80022E5
:100E4C0010212B4801F07FF800222021284801F0C6
:100E5C007AF800224021264801F075F87B68092BAE
:100E6C0022D100220121224801F06DF8002202213A
:100E7C001F4801F068F8002204211D4801F063F8B6
:100E8C00002208211A4801F05EF8012210211848AE
:100E9C0001F059F800222021154801F054F80022E5
:100EAC004021134801F04FF87B680A2B25D1012211
:100EBC0001210F4801F047F8012202210C4801F0F2
:100ECC0042F8012204210A4801F03DF801220821D0
:100EDC00074801F038F801221021054801F033F8D9
:100EEC0001222021024801F02EF80122402101E0CC
:100EFC00000C0140034801F026F800BF0837BD463E
:100F0C0080BD00BF000C014080B582B000AF78609E
:100F1C007B68002B28D100228021D24801F013F8E5
:100F2C0000224FF48071CF4801F00DF800224FF4ED
:100F3C000071CC4801F007F800224FF48061C948D9
:100F4C0001F001F800224FF40061C64800F0FBFFED
:100F5C0000224FF48051C34800F0F5FF01224FF4FA
:100F6C000051C04800F0EFFF7B68012B28D1012213
:100F7C008021BC4800F0E7FF00224FF48071B94893
:100F8C0000F0E1FF00224FF40071B64800F0DBFFE7
:100F9C0001224FF48061B34800F0D5FF01224FF4D9
:100FAC000061B04800F0CFFF01224FF48051AD48F2
:100FBC0000F0C9FF01224FF40051AA4800F0C3FF12
:100FCC007B68022B28D100228021A64800F0BBFFB1
:100FDC0000224FF48071A34800F0B5FF01224FF4BA
:100FEC000071A04800F0AFFF00224FF480619D48D3
:100FFC0000F0A9FF00224FF400619A4800F0A3FF13
:10100C0001224FF48051974800F09DFF00224FF4CD
:10101C000051944800F097FF7B68032B28D10022E5
:10102C008021904800F08FFF00224FF480718D4892
:10103C0000F089FF00224FF400718A4800F083FF12
:10104C0000224FF48061874800F07DFF01224FF4AD
:10105C000061844800F077FF01224FF480518148F1
:10106C0000F071FF00224FF400517E4800F06BFF3E
:10107C007B68042B28D1012280217A4800F063FF81
:10108C0000224FF48071774800F05DFF00224FF48E
:10109C000071744800F057FF01224FF480617148D1
:1010AC0000F051FF01224FF400616E4800F04BFF3D
:1010BC0000224FF480516B4800F045FF00224FF4A2
:1010CC000051684800F03FFF7B68052B28D10022B7
:1010DC008021644800F037FF01224FF48071614891
:1010EC0000F031FF00224FF400715E4800F02BFF3E
:1010FC0000224FF480615B4800F025FF01224FF481
:10110C000061584800F01FFF00224FF480515548F1
:10111C0000F019FF00224FF40051524800F013FF69
:10112C007B68062B28D1002280214E4800F00BFF53
:10113C0001224FF480714B4800F005FF00224FF460
:10114C000071484800F0FFFE00224FF480614548D2
:10115C0000F0F9FE00224FF40061424800F0F3FE6B
:10116C0000224FF480513F4800F0EDFE00224FF476
:10117C0000513C4800F0E7FE7B68072B28D1002289
:10118C008021384800F0DFFE00224FF48071354892
:10119C0000F0D9FE00224FF40071324800F0D3FE6B
:1011AC0001224FF480612F4800F0CDFE01224FF454
:1011BC0000612C4800F0C7FE01224FF480512948F1
:1011CC0000F0C1FE01224FF40051264800F0BBFE96
:1011DC007B68082B28D100228021224800F0B3FE26
:1011EC0000224FF480711F4800F0ADFE00224FF436
:1011FC0000711C4800F0A7FE00224FF480611948D2
:10120C0000F0A1FE00224FF40061164800F09BFE96
:10121C0000224FF48051134800F095FE00224FF449
:10122C000051104800F08FFE7B68092B2BD1002257
:10123C0080210C4800F087FE00224FF48071094891
:10124C0000F081FE00224FF40071064800F07BFE96
:10125C0000224FF48061034800F075FE01224FF428
:10126C00006101E0000C01401F4800F06CFE002200
:10127C004FF480511C4800F066FE00224FF40051E0
:10128C00194800F060FE7B680A2B28D101228021CE
:10129C00154800F058FE01224FF48071124800F0FE
:1012AC0052FE01224FF400710F4800F04CFE012257
:1012BC004FF480610C4800F046FE01224FF40061AF
:1012CC00094800F040FE01224FF48051064800F01E
:1012DC003AFE01224FF40051034800F034FE00BFE7
:1012EC000837BD4680BD00BF000C014080B582B000
:1012FC0000AF786039607B68002B03D07B68012BD2
:10130C0004D007E03868FFF74FFC03E03868FFF7BC
:10131C00FBFD00BF00BF0837BD4680BD80B582B065
:10132C0000AF78600A217868FFF7E0FF00BF08374C
:10133C00BD4680BD80B500AF094B1B68012B0CD19D
:10134C00642000F0A5F9074B1B68013B054A1360AC
:10135C00054B1B68013B044A136000BF80BD00BFF6
:10136C008C000020740000207800002080B500AFB5
:10137C00074B1B68012B08D1322000F09DF900208F
:10138C00FFF77CFB0120FFF779FB00BF80BD00BF9E
:10139C009400002080B500AF074B1B68012B08D1CF
:1013AC00322000F089F90020FFF79AFB0120FFF7AB
:1013BC0097FB00BF80BD00BF9400002080B500AF3C
:1013CC00074B1B68012B08D1322000F075F9002067
:1013DC00FFF7B8FB0120FFF7B5FB00BF80BD00BFD6
:1013EC009400002080B500AF00F0ACFA00F02CF8AF
:1013FC0000F066F800F0B0F8104801F00DFA104B50
:10140C0001221A600F4B01221A600020FFF786FFA1
:10141C000120FFF783FF0020FFF780FF0120FFF77B
:10142C007DFF642000F034F9322000F045F9FEF71E
:10143C009BFFFFF769F8FFF761F9F8E7AC000020B4
:10144C00680000206C00002080B590B000AF07F160
:10145C00180328220021184601F096FD3B1D00229E
:10146C001A605A609A60DA601A610223BB61012328
:10147C00BB621023FB6200237B6307F11803184641
:10148C0000F092FD0346002B01D000F0D3F80F239F
:10149C007B600023BB600023FB6000233B610023C7
:1014AC007B613B1D0021184600F0FEFF0346002B1C
:1014BC0001D000F0BFF800BF4037BD4680BD000032
:1014CC0080B586B000AF07F1080300221A605A609D
:1014DC009A60DA603B4600221A605A601D4B4FF04E
:1014EC0080421A601B4B41F63F725A60194B002226
:1014FC009A60184B0922DA60164B00221A61154BC0
:10150C0000229A61134801F037F90346002B01D0F1
:10151C0000F090F84FF48053BB6007F108031946B4
:10152C000C4801F0CDFA0346002B01D000F082F8F4
:10153C0000233B6000237B603B461946054801F0C5
:10154C0095FC0346002B01D000F074F800BF18374F
:10155C00BD4680BDAC00002080B586B000AF07F161
:10156C00080300221A605A609A60DA60284B9B6963
:10157C00274A43F004039361254B9B6903F0040352
:10158C007B607B68224B9B69214A43F00803936183
:10159C001F4B9B6903F008033B603B6800224FF430
:1015AC007C711C4800F0CFFC002243F6FF711A48F6
:1015BC0000F0C9FC0E23BB600023FB6001233B61E0
:1015CC0007F108031946134800F02CFB4FF47C7309
:1015DC00BB600123FB6000233B6102237B6107F1AD
:1015EC00080319460B4800F01DFB43F6FF73BB6064
:1015FC000123FB6000233B6102237B6107F108039D
:10160C001946054800F00EFB00BF1837BD4680BDDB
:10161C000010024000080140000C014080B582B06F
:10162C0000AF7860FEF7D6FD00F05AF800BF08371F
:10163C00BD4680BD80B400AF72B600BFFEE70000AF
:10164C0080B483B000AF7860054A7B681360054BAB
:10165C0000221A6000BF0C37BD4680BC704700BF2B
:10166C00800000207C00002080B483B000AF786044
:10167C00054A7B681360054B00221A6000BF0C37CB
:10168C00BD4680BC704700BF88000020840000204D
:10169C0080B483B000AF7860054A7B681360054B5B
:1016AC0000221A6000BF0C37BD4680BC704700BFDB
:1016BC00900000208C00002080B483B000AF7860D4
:1016CC00054A7B681360054B00221A6000BF0C377B
:1016DC00BD4680BC704700BF9800002094000020DD
:1016EC0080B400AF314B1B68002B0BDD2F4B1B68FC
:1016FC00013B2E4A13602D4B1B68002B02DC2C4B3C
:10170C0001221A602B4B1B68002B0BDD294B1B682D
:10171C00013B284A1360274B1B68002B02DC264B2D
:10172C0001221A60254B1B68002B0BDD234B1B6819
:10173C00013B224A1360214B1B68002B02DC204B1F
:10174C0001221A601F4B1B68002B0BDD1D4B1B6805
:10175C00013B1C4A13601B4B1B68002B02DC1A4B11
:10176C0001221A60194B1B68002B0BDD174B1B68F1
:10177C00013B164A1360154B1B68002B02DC144B03
:10178C0001221A60134B1B68002B0BDD114B1B68DD
:10179C00013B104A13600F4B1B68002B02DC0E4BF5
:1017AC0001221A6000BFBD4680BC7047800000203B
:1017BC007C00002088000020840000209000002085
:1017CC008C0000209800002094000020A000002035
:1017DC009C000020A8000020A400002080B485B04C
:1017EC0000AF154B9B69144A43F001039361124BF4
:1017FC009B6903F00103BB60BB680F4BDB690E4AAE
:10180C0043F08053D3610C4BDB6903F080537B6056
:10181C007B680A4B5B68FB60FB6823F0E063FB6052
:10182C00FB6843F08063FB60044AFB68536000BFB5
:10183C001437BD4680BC70470010024000000140C8
:10184C0080B584B000AF78607B681B68B3F1804FC3
:10185C0013D10C4BDB690B4A43F00103D361094BE9
:10186C00DB6903F00103FB60FB68002200211C20F4
:10187C0000F0A1F91C2000F0BAF900BF1037BD46EA
:10188C0080BD00BF0010024080B400AFFEE780B402
:10189C0000AFFEE780B400AFFEE780B400AFFEE718
:1018AC0080B400AFFEE780B400AF00BFBD4680BC83
:1018BC00704780B400AF00BFBD4680BC704780B499
:1018CC0000AF00BFBD4680BC704780B500AF00F0D4
:1018DC007FF800BF80BD000080B500AF024800F06B
:1018EC00E7FF00BF80BD00BFAC00002080B400AF9C
:1018FC0000BFBD4680BC70470C480D490D4A002303
:10190C0002E0D458C4500433C4188C42F9D30A4AA8
:10191C000A4C002301E013600432A242FBD3FFF710
:10192C00E5FF01F00DFBFFF75DFD704700000020A7
:10193C0040000020E42F000840000020F8000020A8
:10194C00FEE7000080B500AF084B1B68074A43F068
:10195C0010031360032000F023F90F2000F008F8A7
:10196C00FFF73CFF0023184680BD00BF002002405B
:10197C0080B582B000AF7860124B1A68124B1B789E
:10198C0019464FF47A73B3FBF1F3B2FBF3F3184639
:10199C0000F03BF90346002B01D001230EE07B68DD
:1019AC000F2B0AD8002279684FF0FF3000F003F9B2
:1019BC00064A7B681360002300E0012318460837B1
:1019CC00BD4680BD340000203C00002038000020C3
:1019DC0080B400AF054B1B781A46054B1B681344AB
:1019EC00034A136000BFBD4680BC70473C0000201A
:1019FC00F400002080B400AF024B1B681846BD46B3
:101A0C0080BC7047F400002080B485B000AF7860D3
:101A1C007B6803F00703FB600C4BDB68BB60BA68A8
:101A2C004FF6FF031340BB60FB681A02BB681343FD
:101A3C0043F0BF6343F40033BB60044ABB68D3601C
:101A4C0000BF1437BD4680BC704700BF00ED00E0FE
:101A5C0080B400AF044BDB681B0A03F00703184685
:101A6C00BD4680BC704700BF00ED00E080B483B081
:101A7C0000AF0346FB7197F90730002B0BDBFB79AA
:101A8C0003F01F02064997F907305B09012000FAA1
:101A9C0002F241F8232000BF0C37BD4680BC7047D2
:101AAC0000E100E080B483B000AF03463960FB7105
:101ABC0097F90730002B0ADB3B68DAB20C4997F92F
:101ACC0007301201D2B20B4483F800230AE03B68C2
:101ADC00DAB20849FB7903F00F03043B1201D2B2CE
:101AEC000B441A7600BF0C37BD4680BC704700BF54
:101AFC0000E100E000ED00E080B489B000AFF860D8
:101B0C00B9607A60FB6803F00703FB61FB69C3F102
:101B1C000703042B28BF0423BB61FB690433062B8A
:101B2C0002D9FB69033B00E000237B614FF0FF32DD
:101B3C00BB6902FA03F3DA43BB681A407B699A402B
:101B4C004FF0FF317B6901FA03F3D9437B680B40FB
:101B5C00134318462437BD4680BC704780B582B00D
:101B6C0000AF78607B68013BB3F1807F01D3012328
:101B7C000FE00A4A7B68013B53600F214FF0FF30A6
:101B8C00FFF790FF054B00229A60044B07221A6066
:101B9C00002318460837BD4680BD00BF10E000E0AA
:101BAC0080B582B000AF78607868FFF72DFF00BF7A
:101BBC000837BD4680BD80B586B000AF0346B9601E
:101BCC007A60FB7300237B61FFF742FF78617A68D0
:101BDC00B9687869FFF790FF024697F90F30114604
:101BEC001846FFF75FFF00BF1837BD4680BD80B5B4
:101BFC0082B000AF0346FB7197F907301846FFF728
:101C0C0035FF00BF0837BD4680BD80B582B000AF40
:101C1C0078607868FFF7A2FF034618460837BD4680
:101C2C0080BD000080B48BB000AF786039600023B9
:101C3C007B6200233B6248E101227B6A02FA03F3D8
:101C4C00FB613B681B68FA691340BB61BA69FB69AD
:101C5C009A4240F037813B685B68A34A93425ED05E
:101C6C00A14A934275D8A14A934258D09F4A9342B5
:101C7C006FD89F4A934252D09D4A934269D89D4A4D
:101C8C0093424CD09B4A934263D89B4A934246D092
:101C9C00994A93425DD8122B2AD8122B59D801A2FB
:101CAC0052F823F02B1D0008051D0008171D000815
:101CBC00591D00085F1D00085F1D00085F1D00080E
:101CCC005F1D00085F1D00085F1D00085F1D0008F8
:101CDC005F1D00085F1D00085F1D00085F1D0008E8
:101CEC005F1D00085F1D00080D1D0008211D000868
:101CFC00824A934213D02CE03B68DB683B6229E0BC
:101D0C003B68DB6804333B6224E03B68DB680833E8
:101D1C003B621FE03B68DB680C333B621AE03B68BC
:101D2C009B68002B02D104233B6213E03B689B6849
:101D3C00012B05D108233B627B68FA691A6109E023
:101D4C0008233B627B68FA695A6103E000233B621B
:101D5C0000E000BFBB69FF2B01D87B6801E07B680A
:101D6C0004337B61BB69FF2B02D87B6A9B0002E0CA
:101D7C007B6A083B9B003B617B691A680F213B69BE
:101D8C0001FA03F3DB431A40396A3B6901FA03F3A6
:101D9C001A437B691A603B685B6803F08053002B25
:101DAC0000F09080564B9B69554A43F001039361B8
:101DBC00534B9B6903F00103BB60BB68514A7B6AC0
:101DCC009B08023352F82330FB607B6A03F0030359
:101DDC009B000F2202FA03F3DB43FA681340FB600B
:101DEC007B68494A93420DD07B68484A934207D09E
:101DFC007B68474A934201D1022304E0032302E0AB
:101E0C00012300E000237A6A02F00302920093405F
:101E1C00FA681343FB603B497B6A9B080233FA6800
:101E2C0041F823203B685B6803F48033002B06D019
:101E3C00384B1A683749BB6913430B6006E0354BC6
:101E4C001A68BB69DB43334913400B603B685B6822
:101E5C0003F40033002B06D02E4B5A682D49BB6976
:101E6C0013434B6006E02B4B5A68BB69DB43294993
:101E7C0013404B603B685B6803F48013002B06D067
:101E8C00244B9A682349BB6913438B6006E0214BB2
:101E9C009A68BB69DB431F4913408B603B685B68E6
:101EAC0003F40013002B06D01A4BDA681949BB69EE
:101EBC001343CB6006E0174BDA68BB69DB4315496B
:101ECC001340CB607B6A01337B623B681A687B6A88
:101EDC0022FA03F3002B7FF4AFAE00BF00BF2C3708
:101EEC00BD4680BC704700BF0000321000003110AE
:101EFC000000221000002110000012100000111030
:101F0C00001002400000014000080140000C01409C
:101F1C00001001400004014080B485B000AF78602F
:101F2C000B467B807B689A687B881340002B02D021
:101F3C000123FB7301E00023FB73FB7B1846143772
:101F4C00BD4680BC704780B483B000AF78600B4650
:101F5C007B8013467B707B78002B03D07A887B6860
:101F6C001A6103E07B881A047B681A6100BF0C3786
:101F7C00BD4680BC704780B485B000AF78600B461E
:101F8C007B807B68DB68FB607A88FB6813401A04F3
:101F9C00FB68D9437B880B401A437B681A6100BFEE
:101FAC001437BD4680BC704780B586B000AF7860F2
:101FBC007B68002B01D101236CE27B681B6803F06A
:101FCC000103002B00F08780924B5B6803F00C033D
:101FDC00042B0CD08F4B5B6803F00C03082B12D135
:101FEC008C4B5B6803F48033B3F5803F0BD1894B8A
:101FFC001B6803F40033002B6CD07B685B68002BF0
:10200C0068D1012346E27B685B68B3F5803F06D15B
:10201C00804B1B687F4A43F4803313602EE07B684F
:10202C005B68002B0CD17B4B1B687A4A23F4803302
:10203C001360784B1B68774A23F4802313601DE0F0
:10204C007B685B68B3F5A02F0CD1724B1B68714A8F
:10205C0043F4802313606F4B1B686E4A43F4803348
:10206C0013600BE06B4B1B686A4A23F480331360DC
:10207C00684B1B68674A23F4802313607B685B689A
:10208C00002B13D0FFF7B6FC386108E0FFF7B2FC69
:10209C0002463B69D31A642B01D90323FAE15D4B49
:1020AC001B6803F40033002BF0D014E0FFF7A2FC04
:1020BC00386108E0FFF79EFC02463B69D31A642B9B
:1020CC0001D90323E6E1534B1B6803F40033002BC7
:1020DC00F0D100E000BF7B681B6803F00203002B0B
:1020EC0063D04C4B5B6803F00C03002B0BD0494BBB
:1020FC005B6803F00C03082B1CD1464B5B6803F4A4
:10210C008033002B16D1434B1B6803F00203002BCA
:10211C0005D07B681B69012B01D00123BAE13D4B33
:10212C001B6823F0F8027B685B69DB0039491343B9
:10213C000B603AE07B681B69002B20D0364B0122E8
:10214C001A60FFF757FC386108E0FFF753FC0246B2
:10215C003B69D31A022B01D903239BE12D4B1B683E
:10216C0003F00203002BF0D02A4B1B6823F0F8027B
:10217C007B685B69DB00274913430B6015E0264B3A
:10218C0000221A60FFF736FC386108E0FFF732FCDA
:10219C0002463B69D31A022B01D903237AE11D4B6A
:1021AC001B6803F00203002BF0D17B681B6803F063
:1021BC000803002B3AD07B689B69002B19D0174B76
:1021CC0001221A60FFF716FC386108E0FFF712FCD9
:1021DC0002463B69D31A022B01D903235AE10D4B5A
:1021EC005B6A03F00203002BF0D0012000F0A6FA8A
:1021FC001CE00A4B00221A60FFF7FCFB38610FE071
:10220C00FFF7F8FB02463B69D31A022B08D90323CC
:10221C0040E100BF001002400000424280044242F4
:10222C009E4B5B6A03F00203002BE9D17B681B68B1
:10223C0003F00403002B00F0A6800023FB75974BE2
:10224C00DB6903F08053002B0DD1944BDB69934A6F
:10225C0043F08053D361914BDB6903F08053BB6037
:10226C00BB680123FB758E4B1B6803F48073002B3A
:10227C0018D18B4B1B688A4A43F480731360FFF7A9
:10228C00B9FB386108E0FFF7B5FB02463B69D31A8E
:10229C00642B01D90323FDE0814B1B6803F480738D
:1022AC00002BF0D07B68DB68012B06D17B4B1B6AC3
:1022BC007A4A43F0010313622DE07B68DB68002B44
:1022CC000CD1764B1B6A754A23F001031362734BD6
:1022DC001B6A724A23F0040313621CE07B68DB6800
:1022EC00052B0CD16D4B1B6A6C4A43F00403136233
:1022FC006A4B1B6A694A43F0010313620BE0674B9C
:10230C001B6A664A23F001031362644B1B6A634A1F
:10231C0023F0040313627B68DB68002B15D0FFF7F6
:10232C0069FB38610AE0FFF765FB02463B69D31A8B
:10233C0041F28832934201D90323ABE0574B1B6A1D
:10234C0003F00203002BEED014E0FFF753FB3861CF
:10235C000AE0FFF74FFB02463B69D31A41F2883281
:10236C00934201D9032395E04C4B1B6A03F0020303
:10237C00002BEED1FB7D012B05D1484BDB69474A85
:10238C0023F08053D3617B68DB69002B00F08180E4
:10239C00424B5B6803F00C03082B61D07B68DB6954
:1023AC00022B46D13F4B00221A60FFF723FB38610A
:1023BC0008E0FFF71FFB02463B69D31A022B01D939
:1023CC00032367E0354B1B6803F00073002BF0D13F
:1023DC007B681B6AB3F5803F08D1304B5B6823F4F4
:1023EC0000327B689B682D4913434B602B4B5B6819
:1023FC0023F474127B68196A7B685B6A0B43274968
:10240C0013434B60274B01221A60FFF7F3FA386134
:10241C0008E0FFF7EFFA02463B69D31A022B01D909
:10242C00032337E01D4B1B6803F00073002BF0D027
:10243C002FE01C4B00221A60FFF7DCFA386108E031
:10244C00FFF7D8FA02463B69D31A022B01D90323B2
:10245C0020E0124B1B6803F00073002BF0D118E046
:10246C007B68DB69012B01D1012313E00B4B5B680B
:10247C00FB60FB6803F480327B681B6A9A4206D1CE
:10248C00FB6803F470127B685B6A9A4201D00123EB
:10249C0000E0002318461837BD4680BD00100240EE
:1024AC00007000406000424280B584B000AF78609C
:1024BC0039607B68002B01D10123D0E06A4B1B688B
:1024CC0003F007033A689A4210D9674B1B6823F054
:1024DC00070265493B6813430B60634B1B6803F0B1
:1024EC0007033A689A4201D00123B8E07B681B6865
:1024FC0003F00203002B20D07B681B6803F004035D
:10250C00002B05D0594B5B68584A43F4E063536089
:10251C007B681B6803F00803002B05D0534B5B68EA
:10252C00524A43F460535360504B5B6823F0F00203
:10253C007B689B684D4913434B607B681B6803F0B9
:10254C000103002B40D07B685B68012B07D1474B04
:10255C001B6803F40033002B15D101237FE07B684B
:10256C005B68022B07D1414B1B6803F00073002BF7
:10257C0009D1012373E03D4B1B6803F00203002BD0
:10258C0001D101236BE0394B5B6823F003027B68BC
:10259C005B68364913434B60FFF72CFAF8600AE08E
:1025AC00FFF728FA0246FB68D31A41F288329342AD
:1025BC0001D9032353E02D4B5B6803F00C027B68BD
:1025CC005B689B009A42EBD1274B1B6803F0070317
:1025DC003A689A4210D2244B1B6823F00702224916
:1025EC003B6813430B60204B1B6803F007033A68EE
:1025FC009A4201D0012332E07B681B6803F004038C
:10260C00002B08D0194B5B6823F4E0627B68DB6815
:10261C00164913434B607B681B6803F00803002BBF
:10262C0009D0124B5B6823F460527B681B69DB009A
:10263C000E4913434B6000F021F802460B4B5B68CC
:10264C001B0903F00F030A49CB5C22FA03F3094A76
:10265C001360094B1B681846FFF78AF900231846CC
:10266C001037BD4680BD00BF002002400010024064
:10267C00CC2F0008340000203800002090B48AB021
:10268C0000AF2A4B3C1D0FCB84E80F0040F2012316
:10269C003B800023FB610023BB6100237B62002392
:1026AC007B6100233B62224B5B68FB61FB6903F09F
:1026BC000C03042B02D0082B03D02DE01D4B3B62E6
:1026CC002DE0FB699B0C03F00F0307F12802134468
:1026DC0013F8243C7B61FB6903F48033002B13D08B
:1026EC00134B5B685B0C03F0010307F128021344E6
:1026FC0013F8283CBB617B690E4A02FB03F2BB69F1
:10270C00B2FBF3F37B6204E07B690B4A02FB03F33D
:10271C007B627B6A3B6202E0064B3B6200BF3B6A1A
:10272C0018462837BD4690BC704700BFBC2F000828
:10273C000010024000127A0000093D0080B485B000
:10274C0000AF78600A4B1B680A4AA2FB03235B0AA2
:10275C007A6802FB03F3FB6000BFFB685A1EFA6049
:10276C00002BF9D100BF00BF1437BD4680BC7047A9
:10277C0034000020D34D621080B582B000AF786079
:10278C007B68002B01D1012341E07B6893F83D303D
:10279C00DBB2002B06D17B68002283F83C207868E2
:1027AC00FFF74EF87B68022283F83D207B681A689D
:1027BC007B6804331946104600F06AFA7B680122E4
:1027CC0083F846207B68012283F83E207B68012237
:1027DC0083F83F207B68012283F840207B6801222C
:1027EC0083F841207B68012283F842207B68012218
:1027FC0083F843207B68012283F844207B68012204
:10280C0083F845207B68012283F83D20002318467D
:10281C000837BD4680BD000080B485B000AF78603D
:10282C007B6893F83D30DBB2012B01D0012335E0FE
:10283C007B68022283F83D207B681B68DA687B6822
:10284C001B6842F00102DA607B681B68164A9342EF
:10285C0009D07B681B68B3F1804F04D07B681B6880
:10286C00124A934211D17B681B689B6803F00703E3
:10287C00FB60FB68062B10D07B681B681A687B68B2
:10288C001B6842F001021A6007E07B681B681A683B
:10289C007B681B6842F001021A600023184614374B
:1028AC00BD4680BC704700BF002C014000040040B6
:1028BC0080B582B000AF78607B681B681B6903F041
:1028CC000203022B22D17B681B68DB6803F0020336
:1028DC00022B1BD17B681B686FF002021A617B68AC
:1028EC0001221A777B681B689B6903F00303002B9A
:1028FC0003D0786800F0B1F905E0786800F0A4F92D
:10290C00786800F0B3F97B6800221A777B681B6843
:10291C001B6903F00403042B22D17B681B68DB6862
:10292C0003F00403042B1BD17B681B686FF00402BB
:10293C001A617B6802221A777B681B689B6903F417
:10294C004073002B03D0786800F087F905E07868B5
:10295C0000F07AF9786800F089F97B6800221A7720
:10296C007B681B681B6903F00803082B22D17B686A
:10297C001B68DB6803F00803082B1BD17B681B6802
:10298C006FF008021A617B6804221A777B681B6857
:10299C00DB6903F00303002B03D0786800F05DF9CA
:1029AC0005E0786800F050F9786800F05FF97B6812
:1029BC0000221A777B681B681B6903F01003102B2D
:1029CC0022D17B681B68DB6803F01003102B1BD132
:1029DC007B681B686FF010021A617B6808221A77FB
:1029EC007B681B68DB6903F44073002B03D07868A9
:1029FC0000F033F905E0786800F026F9786800F00B
:102A0C0035F97B6800221A777B681B681B6903F019
:102A1C000103012B0ED17B681B68DB6803F00103FB
:102A2C00012B07D17B681B686FF001021A61786873
:102A3C00FEF7F4FD7B681B681B6903F08003802B99
:102A4C000ED17B681B68DB6803F08003802B07D1F9
:102A5C007B681B686FF080021A61786800F067FA77
:102A6C007B681B681B6903F04003402B0ED17B680D
:102A7C001B68DB6803F04003402B07D17B681B68A5
:102A8C006FF040021A61786800F0F9F87B681B68F7
:102A9C001B6903F02003202B0ED17B681B68DB68BD
:102AAC0003F02003202B07D17B681B686FF02002FA
:102ABC001A61786800F032FA00BF0837BD4680BD55
:102ACC0080B584B000AF786039607B6893F83C3097
:102ADC00012B01D10223B3E07B68012283F83C2057
:102AEC007B68022283F83D207B681B689B68FB6037
:102AFC00FB6823F07703FB60FB6823F47F43FB60E8
:102B0C007B681B68FA689A603B681B68B3F5005FCA
:102B1C003ED0B3F5005F00F28780B3F5805F00F024
:102B2C008580B3F5805F7FD8702B1AD0702B7BD843
:102B3C00602B50D0602B77D8502B3CD0502B73D8B7
:102B4C00402B58D0402B6FD8302B64D0302B6BD807
:102B5C00202B60D0202B67D8002B5CD0102B5AD0A8
:102B6C0062E07B6818683B6899683B685A683B6808
:102B7C00DB6800F05CF97B681B689B68FB60FB689A
:102B8C0043F07703FB607B681B68FA689A604EE041
:102B9C007B6818683B6899683B685A683B68DB68D7
:102BAC0000F045F97B681B689A687B681B6842F4E7
:102BBC0080429A603BE07B6818683B6859683B68C8
:102BCC00DB681A4600F0BCF87B681B68502118467D
:102BDC0000F013F92BE07B6818683B6859683B6878
:102BEC00DB681A4600F0DAF87B681B68602118462F
:102BFC0000F003F91BE07B6818683B6859683B6878
:102C0C00DB681A4600F09CF87B681B68402118466C
:102C1C0000F0F3F80BE07B681A683B681B681946F8
:102C2C00104600F0EAF802E000BF00E000BF7B684D
:102C3C00012283F83D207B68002283F83C2000238E
:102C4C0018461037BD4680BD80B483B000AF7860A5
:102C5C0000BF0C37BD4680BC704780B483B000AF5A
:102C6C00786000BF0C37BD4680BC704780B483B021
:102C7C0000AF786000BF0C37BD4680BC704780B495
:102C8C0083B000AF786000BF0C37BD4680BC704786
:102C9C0080B485B000AF786039607B681B68FB60DE
:102CAC007B68254A934207D07B68B3F1804F03D0F1
:102CBC007B68224A934208D1FB6823F07003FB60C7
:102CCC003B685B68FA681343FB607B681A4A934263
:102CDC0007D07B68B3F1804F03D07B68174A9342CF
:102CEC0008D1FB6823F44073FB603B68DB68FA682F
:102CFC001343FB60FB6823F080023B685B69134362
:102D0C00FB607B68FA681A603B689A687B68DA62D9
:102D1C003B681A687B689A627B68074A934203D1C6
:102D2C003B681A697B681A637B6801225A6100BF91
:102D3C001437BD4680BC7047002C01400004004095
:102D4C0080B487B000AFF860B9607A60FB681B6A2A
:102D5C007B61FB681B6A23F00102FB681A62FB684B
:102D6C009B693B613B6923F0F0033B617B681B0172
:102D7C003A6913433B617B6923F00A037B617A69EF
:102D8C00BB6813437B61FB683A699A61FB687A699B
:102D9C001A6200BF1C37BD4680BC704780B487B038
:102DAC0000AFF860B9607A60FB681B6A23F0100210
:102DBC00FB681A62FB689B697B61FB681B6A3B6161
:102DCC007B6923F470437B617B681B037A69134333
:102DDC007B613B6923F0A0033B61BB681B013A6933
:102DEC0013433B61FB687A699A61FB683A691A6222
:102DFC0000BF1C37BD4680BC704780B485B000AFA7
:102E0C00786039607B689B68FB60FB6823F070031B
:102E1C00FB603A68FB68134343F00703FB607B6875
:102E2C00FA689A6000BF1437BD4680BC704780B406
:102E3C0087B000AFF860B9607A603B60FB689B6854
:102E4C007B617B6923F47F437B613B681A027B685F
:102E5C001A43BB6813437A6913437B61FB687A6935
:102E6C009A6000BF1C37BD4680BC704780B485B0EB
:102E7C0000AF786039607B6893F83C30012B01D14E
:102E8C00022341E07B68012283F83C207B6802220C
:102E9C0083F83D207B681B685B68FB607B681B6864
:102EAC009B68BB60FB6823F07003FB603B681B688E
:102EBC00FA681343FB607B681B68FA685A607B688E
:102ECC001B68144A934209D07B681B68B3F1804F8E
:102EDC0004D07B681B68104A93420CD1BB6823F06A
:102EEC008003BB603B685B68BA681343BB607B685C
:102EFC001B68BA689A607B68012283F83D207B6866
:102F0C00002283F83C20002318461437BD4680BCB1
:102F1C00704700BF002C01400004004080B483B017
:102F2C0000AF786000BF0C37BD4680BC704780B4E2
:102F3C0083B000AF786000BF0C37BD4680BC7047D3
:102F4C0070B500260C4D0D4C641BA410A64209D183
:102F5C0000F022F800260A4D0A4C641BA410A6426D
:102F6C0005D170BD55F8043B98470136EEE755F88E
:102F7C00043B98470136F2E7DC2F0008DC2F0008F1
:102F8C00DC2F0008E02F000803460244934200D1D6
:102F9C00704703F8011BF9E7F8B500BFF8BC08BC93
:102FAC009E467047F8B500BFF8BC08BC9E467047FB
:102FBC0002030405060708090A0B0C0D0E0F10106E
:102FCC0000000000000000000102030406070809CD
:042FDC0031010008B7
:042FE0000D010008D7
:102FE40001010100010000000100000001000000D7
:102FF40001000000010000000100000001000000C9
:1030040001000000010000000500000003000000B2
:10301400020000000024F400100000000100000081
:0400000508001905D1
:00000001FF
